:020000040800F2
:1000000000000220A1200008951F00089B1F000887
:10001000A11F0008A71F0008AD1F00080000000076
:10002000000000000000000000000000B31F0008F6
:10003000C11F000800000000CF1F0008DD1F0008DE
:10004000F1200008F1200008F1200008F12000084C
:10005000F1200008F1200008F1200008F12000083C
:10006000F1200008F1200008F1200008F12000082C
:10007000F1200008F1200008F1200008F12000081C
:10008000F1200008F1200008F12000080000000025
:10009000000000000000000000000000F120000847
:1000A000F1200008F1200008F1200008F1200008EC
:1000B000E91F0008F1200008F1200008F1200008E5
:1000C000F1200008F1200008F1200008F1200008CC
:1000D000F1200008F1200008FD1F000800000000CA
:1000E000F1200008F1200008F120000800000000C5
:1000F000000000000000000000000000F1200008E7
:1001000000000000F1200008F1200008F1200008A4
:1001100000000000000000000000000000000000DF
:10012000F1200008F1200008F1200008F12000086B
:10013000F1200008000000000000000000000000A6
:10014000000000000000000000000000F120000896
:10015000F1200008F1200008F1200008F12000083B
:10016000F1200008F120000800000000000000005D
:10017000000000000000000000000000000000007F
:1001800000000000F1200008000000000000000056
:08019000F1200008F120000835
:1001A00010B5054C237833B9044B13B10448AFF3B1
:1001B00000800123237010BD7000002000000000AB
:1001C0000C6B000808B5034B1BB103490348AFF3A0
:1001D000008008BD00000000740000200C6B0008C7
:1001E00001F0FF01102A2BDB10F0070F08D010F8E8
:1001F000013B013A8B422DD010F0070F42B3F6D1EC
:10020000F0B441EA012141EA014122F007047FF004
:1002100000070023F0E80256083C85EA010586EA5B
:10022000010685FA47F5A3FA87F586FA47F6A5FA97
:1002300087F68EB9EED1F0BC01F0FF0102F00702A3
:1002400032B110F8013B013A83EA010313B1F8D14E
:100250000020704701387047002D06BF354603382F
:10026000073815F0010F07D1013015F4807F02BF68
:10027000013015F4C03F0130F0BC0138704700BFB9
:1002800081F0004102E000BF83F0004330B54FEA47
:1002900041044FEA430594EA050F08BF90EA020FB4
:1002A0001FBF54EA000C55EA020C7FEA645C7FEA47
:1002B000655C00F0E2804FEA5454D4EB5555B8BF6A
:1002C0006D420CDD2C4480EA020281EA030382EADB
:1002D000000083EA010180EA020281EA0303362D6D
:1002E00088BF30BD11F0004F4FEA01314FF4801C40
:1002F0004CEA113102D0404261EB410113F0004F52
:100300004FEA03334CEA133302D0524263EB430308
:1003100094EA050F00F0A780A4F10104D5F1200EA6
:100320000DDB02FA0EFC22FA05F2801841F1000101
:1003300003FA0EF2801843FA05F359410EE0A5F1D5
:1003400020050EF1200E012A03FA0EFC28BF4CF006
:10035000020C43FA05F3C01851EBE37101F00045BC
:1003600007D54FF0000EDCF1000C7EEB00006EEBC9
:100370000101B1F5801F1BD3B1F5001F0CD3490853
:100380005FEA30004FEA3C0C04F101044FEA4452AA
:1003900012F5800F80F09A80BCF1004F08BF5FEA31
:1003A000500C50F1000041EB045141EA050130BD11
:1003B0005FEA4C0C404141EB0101013C28BFB1F523
:1003C000801FE9D291F0000F04BF01460020B1FA6E
:1003D00081F308BF2033A3F10B03B3F120020CDA41
:1003E0000C3208DD02F1140CC2F10C0201FA0CF01F
:1003F00021FA02F10CE002F11402D8BFC2F1200C84
:1004000001FA02F120FA0CFCDCBF41EA0C01904039
:10041000E41AA2BF01EB0451294330BD6FEA040482
:100420001F3C1CDA0C340EDC04F11404C4F120026D
:1004300020FA04F001FA02F340EA030021FA04F37F
:1004400045EA030130BDC4F10C04C4F1200220FAD6
:1004500002F001FA04F340EA0300294630BD21FA14
:1004600004F0294630BD94F0000F83F4801306BFDA
:1004700081F480110134013D4EE77FEA645C18BFCE
:100480007FEA655C29D094EA050F08BF90EA020F65
:1004900005D054EA000C04BF1946104630BD91EA5D
:1004A000030F1EBF0021002030BD5FEA545C05D160
:1004B0004000494128BF41F0004130BD14F580049F
:1004C0003CBF01F5801130BD01F0004545F0FE4113
:1004D00041F470014FF0000030BD7FEA645C1ABF48
:1004E000194610467FEA655C1CBF0B46024650EA7F
:1004F000013406BF52EA033591EA030F41F40021AB
:1005000030BD00BF90F0000F04BF0021704730B530
:100510004FF4806404F132044FF000054FF0000105
:1005200050E700BF90F0000F04BF0021704730B5C6
:100530004FF4806404F1320410F0004548BF40429B
:100540004FF000013EE700BF42004FEAE2014FEAF0
:1005500031014FEA02701FBF12F07F4393F07F4FCB
:1005600081F06051704732F07F4208BF704793F0CE
:100570007F4F04BF41F40021704730B54FF46074E1
:1005800001F0004521F000411CE700BF50EA0102E4
:1005900008BF704730B54FF000050AE050EA01028D
:1005A00008BF704730B511F0004502D5404261EBFD
:1005B00041014FF4806404F132045FEA915C3FF43E
:1005C000D8AE4FF003025FEADC0C18BF03325FEADB
:1005D000DC0C18BF033202EBDC02C2F1200300FA8C
:1005E00003FC20FA02F001FA03FE40EA0E0021FAB1
:1005F00002F11444BDE600BF70B54FF0FF0C4CF49F
:10060000E06C1CEA11541DBF1CEA135594EA0C0F50
:1006100095EA0C0F00F0DEF82C4481EA030621EA8B
:100620004C5123EA4C5350EA013518BF52EA0335C6
:1006300041F4801143F4801338D0A0FB02CE4FF078
:100640000005E1FB02E506F00042E0FB03E54FF0A8
:100650000006E1FB03569CF0000F18BF4EF0010EA0
:10066000A4F1FF04B6F5007F64F5407404D25FEA9C
:100670004E0E6D4146EB060642EAC62141EA55514F
:100680004FEAC52040EA5E504FEACE2EB4F1FD0C91
:1006900088BFBCF5E06F1ED8BEF1004F08BF5FEA0F
:1006A000500E50F1000041EB045170BD06F00046C1
:1006B00046EA010140EA020081EA0301B4EB5C046E
:1006C000C2BFD4EB0C0541EA045170BD41F4801166
:1006D0004FF0000E013C00F3AB8014F1360FDEBF8B
:1006E000002001F0004170BDC4F10004203C35DA67
:1006F0000C341BDC04F11404C4F1200500FA05F3EA
:1007000020FA04F001FA05F240EA020001F000428A
:1007100021F0004110EBD37021FA04F642EB060100
:100720005EEA430E08BF20EAD37070BDC4F10C042A
:10073000C4F1200500FA04F320FA05F001FA04F2EE
:1007400040EA020001F0004110EBD37041F10001DA
:100750005EEA430E08BF20EAD37070BDC4F12005E5
:1007600000FA05F24EEA020E20FA04F301FA05F24D
:1007700043EA020321FA04F001F0004121FA04F2F5
:1007800020EA020000EBD3705EEA430E08BF20EAC5
:10079000D37070BD94F0000F0FD101F000464000FF
:1007A00041EB010111F4801F08BF013CF7D041EA81
:1007B000060195F0000F18BF704703F00046520085
:1007C00043EB030313F4801F08BF013DF7D043EA56
:1007D0000603704794EA0C0F0CEA135518BF95EA0C
:1007E0000C0F0CD050EA410618BF52EA4306D1D193
:1007F00081EA030101F000414FF0000070BD50EAB2
:10080000410606BF1046194652EA430619D094EA3B
:100810000C0F02D150EA013613D195EA0C0F05D125
:1008200052EA03361CBF104619460AD181EA030179
:1008300001F0004141F0FE4141F470014FF0000031
:1008400070BD41F0FE4141F4780170BD70B54FF0CC
:10085000FF0C4CF4E06C1CEA11541DBF1CEA13554C
:1008600094EA0C0F95EA0C0F00F0A7F8A4EB05042E
:1008700081EA030E52EA03354FEA013100F0888025
:100880004FEA03334FF0805545EA131343EA1263EE
:100890004FEA022245EA111545EA10654FEA0026A3
:1008A0000EF000419D4208BF964244F1FD0404F55C
:1008B000407402D25B084FEA3202B61A65EB0305B8
:1008C0005B084FEA32024FF480104FF4002CB6EB75
:1008D000020E75EB030E22BFB61A754640EA0C00F5
:1008E0005B084FEA3202B6EB020E75EB030E22BF35
:1008F000B61A754640EA5C005B084FEA3202B6EB76
:10090000020E75EB030E22BFB61A754640EA9C0034
:100910005B084FEA3202B6EB020E75EB030E22BF04
:10092000B61A754640EADC0055EA060E18D04FEAC2
:10093000051545EA16754FEA06164FEAC30343EA62
:1009400052734FEAC2025FEA1C1CC0D111F4801F2F
:100950000BD141EA00014FF000004FF0004CB6E728
:1009600011F4801F04BF01430020B4F1FD0C88BFC7
:10097000BCF5E06F3FF6AFAEB5EB030C04BFB6EBD2
:10098000020C5FEA500C50F1000041EB045170BDC5
:100990000EF0004E4EEA113114EB5C04C2BFD4EBF2
:1009A0000C0541EA045170BD41F480114FF0000E76
:1009B000013C90E645EA060E8DE60CEA135594EAF2
:1009C0000C0F08BF95EA0C0F3FF43BAF94EA0C0FF5
:1009D0000AD150EA01347FF434AF95EA0C0F7FF46A
:1009E00025AF104619462CE795EA0C0F06D152EABE
:1009F00003353FF4FDAE1046194622E750EA4106A2
:100A000018BF52EA43067FF4C5AE50EA41047FF4B2
:100A10000DAF52EA43057FF4EBAE12E74FEA410215
:100A2000B2F1E04324BFB3F5001CDCF1FE5C0DD94C
:100A300001F0004C4FEAC0024CEA5070B2F1004F96
:100A400040EB830008BF20F00100704711F0804F99
:100A500021D113F13872BCBF01F00040704741F45E
:100A600080114FEA5252C2F11802C2F1200C10FA62
:100A70000CF320FA02F018BF40F001004FEAC12346
:100A80004FEAD32303FA0CFC40EA0C0023FA02F3EA
:100A90004FEA4303CCE77FEA625307D150EA0133C0
:100AA0001EBF4FF0FE4040F44000704701F0004090
:100AB00040F0FE4040F40000704700BF53B94AB90F
:100AC000002908BF00281CBF4FF0FF314FF0FF3056
:100AD00000F074B9ADF1080C6DE904CE00F006F831
:100AE000DDF804E0DDE9022304B070472DE9F047AA
:100AF000089D04468E46002B4DD18A42944669D902
:100B0000B2FA82F252B101FA02F3C2F1200120FAE4
:100B100001F10CFA02FC41EA030E94404FEA1C4832
:100B2000210CBEFBF8F61FFA8CF708FB16E341EA2E
:100B3000034306FB07F199420AD91CEB030306F1B4
:100B4000FF3080F01F81994240F21C81023E6344D5
:100B50005B1AA4B2B3FBF8F008FB103344EA034479
:100B600000FB07F7A7420AD91CEB040400F1FF338E
:100B700080F00A81A74240F207816444023840EACB
:100B80000640E41B00261DB1D4400023C5E9004304
:100B90003146BDE8F0878B4209D9002D00F0EF8087
:100BA0000026C5E9000130463146BDE8F087B3FABA
:100BB00083F6002E4AD18B4202D3824200F2F980A2
:100BC000841A61EB030301209E46002DE0D0C5E9A5
:100BD000004EDDE702B9FFDEB2FA82F2002A40F0F1
:100BE0009280A1EB0C014FEA1C471FFA8CFE0126F4
:100BF000200CB1FBF7F307FB131140EA01410EFB98
:100C000003F0884208D91CEB010103F1FF3802D23E
:100C1000884200F2CB804346091AA4B2B1FBF7F038
:100C200007FB101144EA01440EFB00FEA64508D95B
:100C30001CEB040400F1FF3102D2A64500F2BB8098
:100C40000846A4EB0E0440EA03409CE7C6F12007E7
:100C5000B34022FA07FC4CEA030C20FA07F401FA2D
:100C600006F31C43F9404FEA1C4900FA06F3B1FBB6
:100C7000F9F8200C1FFA8CFE09FB181140EA01411B
:100C800008FB0EF0884202FA06F20BD91CEB0101B8
:100C900008F1FF3A80F08880884240F28580A8F110
:100CA00002086144091AA4B2B1FBF9F009FB101162
:100CB00044EA014100FB0EFE8E4508D91CEB010100
:100CC00000F1FF346CD28E456AD90238614440EAA3
:100CD0000840A0FB0294A1EB0E01A142C846A64623
:100CE00056D353D05DB1B3EB080261EB0E0101FAAC
:100CF00007F722FA06F3F1401F43C5E90071002609
:100D00003146BDE8F087C2F12003D8400CFA02FC5E
:100D100021FA03F3914001434FEA1C471FFA8CFE6E
:100D2000B3FBF7F007FB10360B0C43EA064300FB5E
:100D30000EF69E4204FA02F408D91CEB030300F1FC
:100D4000FF382FD29E422DD9023863449B1B89B2B3
:100D5000B3FBF7F607FB163341EA034106FB0EF33C
:100D60008B4208D91CEB010106F1FF3816D28B42E9
:100D700014D9023E6144C91A46EA004638E72E46B5
:100D8000284605E70646E3E61846F8E64B45A9D2AD
:100D9000B9EB020864EB0C0E0138A3E74646EAE71C
:100DA000204694E74046D1E7D0467BE7023B6144CA
:100DB00032E7304609E76444023842E7704700BF33
:100DC00080B483B000AF3B4683E803003B781A460B
:100DD000BB781344FA7813443A7913447A799342EE
:100DE0000CBF01230023DBB218460C37BD465DF86B
:100DF000047B704780B584B000AF3B4683E80300B6
:100E00005D4B1B78012B02D0022B62D0B0E03B4639
:100E100093E80300FFF7D4FF0346002B4CD03B7848
:100E2000012B40F0A2807B78002B2AD17A78534B9B
:100E30001A70534800F048F90346FB73FB7B002B04
:100E400040F093804FF400714E4802F0F8F8BA7801
:100E50004D4B1A707B78BA781146184600F014F999
:100E60004FF47A724FF47A71484800F05FFD484BB6
:100E700000221A70FA78474B1A703F4B02221A7000
:100E800073E07B78012B70D17A783C4B1A70BA787A
:100E90003D4B1A70404800F01BFABB7819463F489A
:100EA00000F074FA3A4B00221A70FA78394B1A7033
:100EB000314B02221A7058E039493A4805F0C6F918
:100EC00003469AB24FF4FA733649344804F053F9A2
:100ED0004BE03B4693E80300FFF772FF0346002B0D
:100EE0002ED03B78002B09D13B79002B06D0224B2A
:100EF00001221A70254800F0B5FE35E03B79002B41
:100F000002D03B78012B11D17B781F4A1278114611
:100F1000184600F0B9F84FF47A724FF47A711B4812
:100F200000F004FD1A4B00221A701DE03B78022BE2
:100F30001DD1164800F096FE0F4B01221A7016E0E4
:100F40001749184805F082F903469AB24FF4FA732C
:100F50001449124804F00FF94FF47A724FF47A7181
:100F60000A4800F0E3FC02E001E000BF00E000BF3F
:100F700000BF1037BD4680BDA20100208F000020B9
:100F800090000020000002408C000020A90F000803
:100F90008D0000208E00002028010020E4000020A9
:100FA000246B00087001002080B500AF154B1B7842
:100FB0000133DAB2134B1A70124B1A78124B1B78AA
:100FC0009A4215D9114B1B781A461149114805F060
:100FD0003DF903469AB24FF4FA730E490E4804F0F5
:100FE000CAF80E4800F03EFE0D4B01221A7007E0D1
:100FF0000C4B1B78054A12781146184600F044F84D
:1010000080BD00BF8D0000208E0000208C000020DD
:10101000306B000870010020E4000020A90F0008D8
:10102000A20100208F00002084B080B500AF07F13E
:10103000080C8CE80F00104B184607F108035422E7
:10104000194605F0EDF80D4B184607F15C034422F4
:10105000194605F0E5F80A4B184607F1A0034822A7
:10106000194605F0DDF8074B01221A7000BFBD4696
:10107000BDE8804004B0704790000020E4000020EC
:1010800028010020A201002080B582B000AF0346F5
:101090000A46FB711346BB71FB79002B05D1BB7966
:1010A0001946084800F080F807E0FB79012B04D1CD
:1010B000BB791946034800F069F900BF0837BD46FF
:1010C00080BD00BFE400002080B586B002AF78602C
:1010D0004FF47A73009301230022B821786802F05C
:1010E0000DF90346FB73FB7B002B4BD14FF47A7356
:1010F00000930523264AB821786802F0FDF90346DB
:10110000FB73FB7B002B3DD1214B1A79214B1A70CD
:101110001F4B1B781A461E4B5B7813441C4A92786F
:1011200013441B4AD2781344194A1279934227D1A7
:10113000174B1A78184B1A70154B5A78174B1A70B0
:10114000134B9B78BB73124BDA78154B1A70144B08
:101150001B785BB2002B07DABB7B9BB25B429BB276
:101160001AB2104B1A8003E0BB7B1AB20D4B1A80E7
:101170000B4B1B785B005B10DAB2094B1A7001E075
:10118000012300E0FB7B18461037BD4680BD00BF41
:10119000AC010020A9010020A7010020A801002027
:1011A000A6010020A401002080B588B004AF7860BB
:1011B0000B46FB70FB789AB2284BB3F900309BB218
:1011C00013449AB2264B1B789BB213449BB2033351
:1011D000FB81FA78214BB3F900301946204B1B787C
:1011E0001846FB8903930290019102230093012387
:1011F0001C491D4805F02AF803469AB264231A498F
:10120000786803F0B8FFFB789AB2184B1B789BB252
:1012100013449AB2164B1B789BB213449BB204330F
:10122000FB81FA78114B1B781946114B1B78184635
:10123000FB890393029001910223009302230D493D
:10124000094805F003F803469AB264230649786812
:1012500003F091FF00BF1037BD4680BDA401002000
:10126000A60100203C6B0008B4010020A70100206B
:10127000A8010020546B000880B582B000AF7860F0
:101280007868FFF73FF90EA3D3E90023FFF7DEFAF2
:1012900002460B46104619460BA3D3E90023FFF77D
:1012A000ABF902460B4610461946FFF7B7FB03465B
:1012B00007EE903AB0EE670A0837BD4680BD00BF22
:1012C000000000000002B0406666666666660A407E
:1012D000B0B586B000AF7860786800F0C1FF6421D7
:1012E000786801F0A4F8786801F02CF978617868E2
:1012F00001F06AF87869FFF7BFFF87ED040A3869E3
:10130000FFF722F902460B461CA1D1E90001FEF7C6
:10131000BBFF02460B4614461D463869FFF714F919
:1013200002460B4620462946FFF790FA02460B4636
:1013300010461946FFF772FB0346FB60F868FFF79B
:1013400003F910A3D3E90023FFF780FA02460B4606
:1013500010461946FFF762FB0346BB60064ABB68AE
:101360001360BB6807EE903AB0EE670A1837BD46C7
:10137000B0BD00BFAFF30080E8010020666666667E
:1013800066660A40333333333333D33F80B58AB094
:1013900004AF78600B46FB70214BD3ED007AFDEE75
:1013A000E77A17EE903A7B611D4B93ED007A7B69EB
:1013B00007EE903AF8EEE77A77EE677AC7ED047AAF
:1013C000D7ED047A9FED177A67EE877AFDEEE77A1C
:1013D00017EE903AFB60FB789AB27B699BB213449C
:1013E0009AB2FB689BB213449BB202337B81FA78BA
:1013F0007B890393FB6802937B690193012300932C
:1014000001230949094804F021FF03469AB26423E5
:101410000649786803F0AFFE00BF1837BD4680BDAF
:10142000E80100200000C8426C6B0008EC010020BD
:1014300080B400AF224B1B68002B0BDD204B1B68D8
:10144000013B1F4A13601E4B1B68002B02DC1D4B27
:1014500001221A601C4B1B68002B0BDD1A4B1B680A
:10146000013B194A1360184B1B68002B02DC174B19
:1014700001221A60164B1B68002B0BDD144B1B68F6
:10148000013B134A1360124B1B68002B02DC114B0B
:1014900001221A60104B1B68002B0BDD0E4B1B68E2
:1014A000013B0D4A13600C4B1B68002B02DC0B4BFD
:1014B00001221A6000BFBD465DF8047B704700BF83
:1014C0002002002024020020280200202C020020FC
:1014D0003002002034020020380200203C020020AC
:1014E00080B584B000AF786006221049104803F040
:1014F000D4FE0E4B1B783B720C4B5B787B720B4B14
:101500009B78BB72094BDB78FB72084B1B793B73F2
:10151000064B5B797B7307F1080393E80300FFF741
:1015200069FC00BF1037BD4680BD00BF68030020C6
:101530002403002080B5ECB034AF00F0DBFD00F0F8
:1015400041F800F093F900F01BF900F065F900F0A4
:10155000E9F800F095F8164803F0CAF90622154993
:10156000154803F09AFE154A3B4611465422184688
:1015700004F056FE104A07F154031146442218465F
:1015800004F04EFE0E4A07F1980311464822184611
:1015900004F046FE684607F11003D022194604F015
:1015A0003FFE3B460FCBFFF73FFD00F0C9FAFCE7DB
:1015B000DC020020680300202403002088020020B1
:1015C0004002002080B594B000AF07F12003302224
:1015D0000021184604F032FE07F10C0300221A60C5
:1015E0005A609A60DA601A610023BB60224B1B6C60
:1015F000214A43F0805313641F4B1B6C03F080534C
:10160000BB60BB6800237B601C4B1B681B4A43F418
:1016100040431360194B1B6803F440437B607B68B5
:1016200002233B620123FB6210233B630023BB6365
:1016300007F12003184602F0B3FC0346002B01D04B
:1016400000F06EF90F23FB6000233B6100237B61F8
:101650000023BB610023FB6107F10C030021184646
:1016600002F016FF0346002B01D000F059F900BF2D
:101670005037BD4680BD00BF0038024000700040BA
:1016800080B584B000AF3B4600221A605A609A6071
:10169000DA60214B214A1A601F4B00225A601E4B10
:1016A00000229A601C4B00221A611B4B01221A7601
:1016B000194B002283F82020174B0022DA62164BC8
:1016C000174A9A62144B0022DA60134B0122DA6146
:1016D000114B002283F830200F4B01225A610E4833
:1016E00000F07AFD0346002B01D000F019F9002329
:1016F0003B6001237B600523BB603B4619460648DF
:1017000000F02EFF0346002B01D000F009F900BFC6
:101710001037BD4680BD00BF4002002000200140C0
:101720000100000F80B500AF124B134A1A60114B35
:10173000124A5A600F4B00229A600E4B0022DA6068
:101740000C4B4FF480421A610A4B00225A61094B3C
:1017500000229A61074B0022DA61064B00221A62CE
:10176000044801F087FC0346002B01D000F0D8F8B4
:1017700000BF80BD8802002000580040A086010004
:1017800080B586B000AF07F1080300221A605A60E6
:101790009A60DA603B4600221A605A601D4B4FF097
:1017A00080421A601B4B40F23F625A60194B002284
:1017B0009A60184B6322DA60164B00221A61154BAF
:1017C00000229A61134803F043F80346002B01D02E
:1017D00000F0A6F84FF48053BB6007F108031946E8
:1017E0000C4803F0EFF90346002B01D000F098F805
:1017F00000233B6000237B603B461946054803F00D
:10180000EBFB0346002B01D000F08AF800BF18372D
:10181000BD4680BDDC02002080B500AF114B124AEE
:101820001A60104B4FF4E1325A600E4B00229A605E
:101830000C4B0022DA600B4B00221A61094B0C2280
:101840005A61084B00229A61064B0022DA61054872
:1018500003F044FC0346002B01D000F061F800BF08
:1018600080BD00BF240300200044004080B588B044
:1018700000AF07F10C0300221A605A609A60DA6028
:101880001A610023BB60194B1B6B184A43F001031C
:101890001363164B1B6B03F00103BB60BB68002393
:1018A0007B60124B1B6B114A43F0020313630F4B17
:1018B0001B6B03F002037B607B6800224FF4C06166
:1018C0000B4801F0A3FB4FF4C063FB6001233B61B5
:1018D00000237B610023BB6107F10C031946044818
:1018E00001F010FA00BF2037BD4680BD003802402D
:1018F0000000024080B582B000AF7860074B1A68E4
:101900007B681A607B681B68002B03D000F0B0F87E
:10191000FFF78EFD00BF0837BD4680BDDC0200200A
:1019200080B400AF72B600BFFEE7000080B487B09D
:1019300000AFF860B9607A60474B1B68092B08DD7F
:10194000464B1A78464B1A70444B07221A700023F4
:101950007CE000237B6138E042497A6913469B00B2
:1019600013449B000B441B68FA689A422AD1BB6857
:101970003D4A82FB03129210DB17D11A39487A696B
:1019800013469B0013449B000344043319607B6897
:10199000364AA2FB0323D90832487A6913469B00D2
:1019A00013449B0003440C3319602E497A69134693
:1019B0009B0013449B000B44083300221A60264B03
:1019C0001B6843E07B6901337B61234B1B687A69A9
:1019D0009A42C1DB204B1A68224913469B001344EC
:1019E0009B000B44FA681A601B4B1A68BB681E49BF
:1019F00081FB03018910DB17C91A1A4813469B00A3
:101A000013449B00034404331960134B1A687B682A
:101A10001649A1FB0313D908124813469B0013442F
:101A20009B0003440C3319600B4B1A680D49134695
:101A30009B0013449B000B44083300221A60064BA2
:101A40001B680133044A1360034B1B6818461C379C
:101A5000BD465DF8047B70477003002074030020CE
:101A6000750300207803002067666666CDCCCCCC79
:101A700080B483B000AF00237B6051E02E497A68C8
:101A800013469B0013449B000B4404331B68002B3C
:101A900043DB29497A6813469B0013449B000B449F
:101AA00004331B68591E24487A6813469B0013446C
:101AB0009B000344043319601F497A6813469B0056
:101AC00013449B000B4404331B68002B25DC1A498C
:101AD0007A6813469B0013449B000B4408331B6831
:101AE000591C15487A6813469B0013449B00034415
:101AF0000833196010497A6813469B0013449B0011
:101B00000B440C331B6818460B497A6813469B003C
:101B100013449B000B44043318607B6801337B60E3
:101B2000064B1B687A689A42A8DB00BF00BF0C37DF
:101B3000BD465DF8047B70477803002070030020E9
:101B400080B582B000AF00237B6037E020497A681F
:101B500013469B0013449B000B4408331B68002B67
:101B600029D01B497A6813469B0013449B000B4401
:101B70001B68984716497A6813469B0013449B00DC
:101B80000B4408331B68591E11487A6813469B00A2
:101B900013449B000344083319600D497A681346C7
:101BA0009B0013449B000B440C331B68002B02D199
:101BB000786800F011F87B6801337B60054B1B6887
:101BC0007A689A42C2DB00BF00BF0837BD4680BDBD
:101BD0007803002070030020B0B485B000AF7860B7
:101BE0007B68FB6017E0FB685A1C1A48F9680B46D3
:101BF0009B000B449B001844164913469B0013445A
:101C00009B000B4404461D460FCD0FC42B68236078
:101C1000FB680133FB60104B1B68013BFA689A427A
:101C2000E1DB0D4B1B68002B08DD0B4B1B68013BF8
:101C3000094A1360094B00221A7006E0074B1A7814
:101C4000074B1A70054B08221A7000BF1437BD46A7
:101C5000B0BC70477803002070030020740300209C
:101C600075030020B0B485B000AF78600023FB603E
:101C70002FE02749FA6813469B0013449B000B444E
:101C80001B687A689A4221D1FB68BB6017E0BB6889
:101C90005A1C1F48B9680B469B000B449B00184414
:101CA0001B4913469B0013449B000B4404461D46EE
:101CB0000FCD0FC42B682360BB680133BB60154B8D
:101CC0001B68013BBA689A42E1DB07E0FB6801331D
:101CD000FB60104B1B68FA689A42CADB0D4B1B680D
:101CE000002B08DD0B4B1B68013B0A4A13600A4BB3
:101CF00000221A7006E0084B1A78084B1A70064B3F
:101D000008221A7000BF1437BD46B0BC704700BF30
:101D10007803002070030020740300207503002066
:101D200080B483B000AF00237B60104B5B6C0F4A24
:101D300043F4804353640D4B5B6C03F480437B603E
:101D40007B6800233B60094B1B6C084A43F08053BF
:101D50001364064B1B6C03F080533B603B6800BF71
:101D60000C37BD465DF8047B704700BF0038024069
:101D700080B58AB000AF786007F1140300221A60C2
:101D80005A609A60DA601A617B681B68174A93424E
:101D900027D100233B61164B5B6C154A43F48073DB
:101DA0005364134B5B6C03F480733B613B6900230A
:101DB000FB600F4B1B6B0E4A43F0010313630C4B8C
:101DC0001B6B03F00103FB60FB6801237B610323B2
:101DD000BB610023FB6107F114031946054800F0BD
:101DE00091FF00BF2837BD4680BD00BF00200140E5
:101DF000003802400000024080B58AB000AF786031
:101E000007F1140300221A605A609A60DA601A61BE
:101E10007B681B68214A93423CD100233B61204BE5
:101E20001B6B1F4A43F0020313631D4B1B6B03F034
:101E300002033B613B694FF480637B611223BB610A
:101E40000023FB6103233B6204237B6207F114033D
:101E50001946144800F056FF08237B611223BB612A
:101E60000023FB6103233B6209237B6207F1140318
:101E700019460C4800F046FF0023FB60084B1B6C22
:101E8000074A43F480031364054B1B6C03F480037F
:101E9000FB60FB6800BF2837BD4680BD005800408E
:101EA000003802400004024080B584B000AF786082
:101EB0007B681B68B3F1804F15D10023FB600C4B8E
:101EC0001B6C0B4A43F001031364094B1B6C03F0BA
:101ED0000103FB60FB68002200211C2000F049FE8A
:101EE0001C2000F062FE00BF1037BD4680BD00BF61
:101EF0000038024080B58AB000AF786007F1140363
:101F000000221A605A609A60DA601A617B681B6866
:101F10001D4A934233D100233B611C4B1B6C1B4A6F
:101F200043F400331364194B1B6C03F400333B611F
:101F30003B690023FB60154B1B6B144A43F0010304
:101F40001363124B1B6B03F00103FB60FB680C2354
:101F50007B610223BB610023FB6103233B620723F8
:101F60007B6207F114031946094800F0CBFE0022FA
:101F70000021262000F0FDFD262000F016FE00BF07
:101F80002837BD4680BD00BF0044004000380240F5
:101F90000000024080B400AFFEE780B400AFFEE76F
:101FA00080B400AFFEE780B400AFFEE780B400AFBE
:101FB000FEE780B400AF00BFBD465DF8047B70470C
:101FC00080B400AF00BFBD465DF8047B704780B4AD
:101FD00000AF00BFBD465DF8047B704780B500AF21
:101FE00000F0DAF800BF80BD80B500AF024802F013
:101FF000E1FC00BF80BD00BFDC02002080B500AF67
:10200000024803F07BF900BF80BD00BF240300201D
:1020100080B586B000AF7860144A154BD31A7B6147
:102020007B693B61134B1B68002B02D1114B124A99
:102030001A60104B1A687B6813443A699A4207D2B7
:1020400004F0C4F803460C221A604FF0FF3309E095
:10205000084B1B68FB60074B1A687B681344054AF2
:102060001360FB6818461837BD4680BD000002208B
:1020700000040000400400205804002080B400AF99
:10208000064BD3F88830054A43F47003C2F8883011
:1020900000BFBD465DF8047B704700BF00ED00E067
:1020A000DFF834D00D480E490E4A002302E0D45820
:1020B000C4500433C4188C42F9D30B4A0B4C002390
:1020C00001E013600432A242FBD3FFF7D7FF04F014
:1020D00083F8FFF72FFA704700000220000000206D
:1020E00070000020E06B0008700000205804002001
:1020F000FEE7000080B500AF0E4B1B680D4A43F4AD
:10210000007313600B4B1B680A4A43F4806313602F
:10211000084B1B68074A43F480731360032000F0E8
:102120001DFD0F2000F008F8FFF7FAFD0023184608
:1021300080BD00BF003C024080B582B000AF786037
:10214000124B1A68124B1B7819464FF47A73B3FB83
:10215000F1F3B2FBF3F3184600F035FD0346002B14
:1021600001D001230EE07B680F2B0AD8002279688A
:102170004FF0FF3000F0FDFC064A7B68136000233F
:1021800000E0012318460837BD4680BD000000204E
:10219000080000200400002080B400AF064B1B782C
:1021A0001A46064B1B681344044A136000BFBD4621
:1021B0005DF8047B704700BF080000204404002045
:1021C00080B400AF034B1B681846BD465DF8047B26
:1021D000704700BF4404002080B584B000AF786031
:1021E0000023FB737B68002B01D1012333E07B6864
:1021F0001B6C002B09D17868FFF7BAFD7B680022C1
:102200005A647B68002283F83C207B681B6C03F0D7
:102210001003002B18D17B681B6C23F4885323F028
:10222000020343F002027B681A64786800F0CAFA7D
:102230007B6800225A647B681B6C23F0030343F025
:1022400001027B681A6401E00123FB737B680022B2
:1022500083F83C20FB7B18461037BD4680BD00004C
:1022600080B485B000AF78600023BB607B6893F8D2
:102270003C30012B01D1022397E07B68012283F8D7
:102280003C207B681B689B6803F00103012B18D07E
:102290007B681B689A687B681B6842F001029A6041
:1022A000454B1B68454AA2FB03239A0C13465B006F
:1022B0001344BB6002E0BB68013BBB60BB68002B02
:1022C000F9D17B681B689B6803F00103012B5FD188
:1022D0007B681B6C23F4E06323F0010343F48072FA
:1022E0007B681A647B681B685B6803F48063002B5F
:1022F00007D07B681B6C23F4405343F480527B6807
:102300001A647B681B6C03F48053B3F5805F06D1BD
:102310007B685B6C23F006027B685A6402E07B6892
:1023200000225A647B68002283F83C20244BFB6027
:102330007B681B686FF022021A60FB685B6803F021
:102340001F03002B0FD17B681B689B6803F0405371
:10235000002B29D17B681B689A687B681B6842F058
:1023600080429A6020E07B681B68164A93421BD12A
:102370007B681B689B6803F04053002B14D17B687B
:102380001B689A687B681B6842F080429A600BE089
:102390007B681B6C43F010027B681A647B685B6C83
:1023A00043F001027B685A64002318461437BD4687
:1023B0005DF8047B704700BF0000002083DE1B43F4
:1023C000002301400020014080B483B000AF78605A
:1023D0007B6893F83C30012B01D1022321E07B681C
:1023E000012283F83C207B681B689A687B681B6825
:1023F00022F001029A607B681B689B6803F001036E
:10240000002B09D17B681B6C23F4885323F0010354
:1024100043F001027B681A647B68002283F83C2049
:10242000002318460C37BD465DF8047B704780B525
:1024300084B000AF786039600023FB607B681B6864
:102440009B6803F48063B3F5806F13D17B681B68CE
:102450009B6803F48073B3F5807F0BD17B681B6CA2
:1024600043F020027B681A647B68002283F83C20DA
:10247000012363E0FFF7A4FEF86021E03B68B3F1BD
:10248000FF3F1DD03B68002B07D0FFF799FE0246A7
:10249000FB68D31A3A689A4212D27B681B681B68A1
:1024A00003F00203022B0BD07B681B6C43F0040289
:1024B0007B681A647B68002283F83C2003233DE09C
:1024C0007B681B681B6803F00203022BD6D17B6874
:1024D0001B686FF012021A607B681B6C43F4007279
:1024E0007B681A647B681B689B6803F04053002B71
:1024F00023D17B681B7E002B1FD17B681B68DB6AA6
:1025000003F47003002B06D07B681B689B6803F400
:102510008063002B11D17B681B6C23F480727B6875
:102520001A647B681B6C03F48053002B05D17B6815
:102530001B6C43F001027B681A64002318461037B5
:10254000BD4680BD80B483B000AF78607B681B68F7
:10255000DB6C18460C37BD465DF8047B7047000005
:1025600080B485B000AF786039600023BB607B68C1
:1025700093F83C30012B01D1022313E17B68012247
:1025800083F83C203B681B68092B25D97B681B68B6
:10259000D9683B681B689BB21A4613465B0013441C
:1025A0001E3B072202FA03F3DA437B681B680A40EA
:1025B000DA607B681B68D9683B689A683B681B686F
:1025C0009BB2184603465B0003441E3B9A407B685F
:1025D0001B680A43DA6022E07B681B6819693B6864
:1025E0001B689BB21A4613465B001344072202FA8B
:1025F00003F3DA437B681B680A401A617B681B6837
:1026000019693B689A683B681B689BB21846034689
:102610005B0003449A407B681B680A431A613B686D
:102620005B68062B24D87B681B68596B3B685A682B
:1026300013469B001344053B1F2202FA03F3DA43BF
:102640007B681B680A405A637B681B68596B3B6850
:102650001B689BB218463B685A6813469B0013449C
:10266000053B00FA03F27B681B680A435A634CE09F
:102670003B685B680C2B24D87B681B68196B3B6834
:102680005A6813469B001344233B1F2202FA03F3AC
:10269000DA437B681B680A401A637B681B68196B06
:1026A0003B681B689BB218463B685A6813469B0000
:1026B0001344233B00FA03F27B681B680A431A6346
:1026C00023E07B681B68D96A3B685A6813469B0005
:1026D0001344413B1F2202FA03F3DA437B681B6871
:1026E0000A40DA627B681B68D96A3B681B689BB248
:1026F00018463B685A6813469B001344413B00FA56
:1027000003F27B681B680A43DA62294BFB607B6833
:102710001B68284A93420FD13B681B68122B0BD1D0
:10272000FB685B6823F40002FB685A60FB685B6827
:1027300043F48002FB685A607B681B681D4A934221
:102740002BD13B681B681C4A934203D03B681B6833
:10275000112B22D1FB685B6823F48002FB685A606E
:10276000FB685B6843F40002FB685A603B681B68C7
:10277000114A934211D1114B1B68114AA2FB03234A
:102780009A0C13469B0013445B00BB6002E0BB68DD
:10279000013BBB60BB68002BF9D17B68002283F84A
:1027A0003C20002318461437BD465DF8047B704773
:1027B0000023014000200140120000100000002012
:1027C00083DE1B4380B485B000AF7860794BFB603B
:1027D000FB685B6823F44032FB685A60FB685A6808
:1027E0007B685B681A43FB685A607B681B685A68A1
:1027F0007B681B6822F480725A607B681B6859688A
:102800007B681B691A027B681B680A435A607B68F5
:102810001B685A687B681B6822F040725A607B68AC
:102820001B6859687B689A687B681B680A435A6012
:102830007B681B689A687B681B6822F400629A6058
:102840007B681B6899687B68DA687B681B680A4349
:102850009A607B689B6A584A934222D07B681B68C7
:102860009A687B681B6822F070629A607B681B68BC
:1028700099687B689A6A7B681B680A439A607B68E0
:102880001B689A687B681B6822F040529A607B68DC
:102890001B6899687B68DA6A7B681B680A439A60E0
:1028A0000FE07B681B689A687B681B6822F0706287
:1028B0009A607B681B689A687B681B6822F04052AC
:1028C0009A607B681B689A687B681B6822F002022A
:1028D0009A607B681B6899687B681B7E5A007B68DE
:1028E0001B680A439A607B6893F82030002B1BD04A
:1028F0007B681B685A687B681B6842F400625A60F8
:102900007B681B685A687B681B6822F460425A60C7
:102910007B681B6859687B685B6A013B5A037B686C
:102920001B680A435A6007E07B681B685A687B682B
:102930001B6822F400625A607B681B68DA6A7B6855
:102940001B6822F47002DA627B681B68D96A7B68B4
:10295000DB69013B1A057B681B680A43DA627B6806
:102960001B689A687B681B6822F400729A607B6817
:102970001B6899687B6893F830305A027B681B6843
:102980000A439A607B681B689A687B681B6822F41C
:1029900080629A607B681B6899687B685B699A02B1
:1029A0007B681B680A439A6000BF1437BD465DF818
:1029B000047B7047002301400100000F80B485B004
:1029C00000AF78607B6803F00703FB600C4BDB68AB
:1029D000BB60BA684FF6FF031340BB60FB681A0286
:1029E000BB68134343F0BF6343F40033BB60044A46
:1029F000BB68D36000BF1437BD465DF8047B7047E9
:102A000000ED00E080B400AF044BDB681B0A03F06C
:102A100007031846BD465DF8047B704700ED00E0F3
:102A200080B483B000AF0346FB7197F90730002BE9
:102A30000BDBFB7903F01F02074997F907305B09AD
:102A4000012000FA02F241F8232000BF0C37BD46F6
:102A50005DF8047B704700BF00E100E080B483B004
:102A600000AF03463960FB7197F90730002B0ADB92
:102A70003B68DAB20C4997F907301201D2B20B4425
:102A800083F800230AE03B68DAB20849FB7903F0D7
:102A90000F03043B1201D2B20B441A7600BF0C376D
:102AA000BD465DF8047B704700E100E000ED00E00A
:102AB00080B489B000AFF860B9607A60FB6803F059
:102AC0000703FB61FB69C3F10703042B28BF042341
:102AD000BB61FB690433062B02D9FB69033B00E0B1
:102AE00000237B614FF0FF32BB6902FA03F3DA4344
:102AF000BB681A407B699A404FF0FF317B6901FA4D
:102B000003F3D9437B680B40134318462437BD4673
:102B10005DF8047B7047000080B582B000AF78603C
:102B20007B68013BB3F1807F01D301230FE00A4AA8
:102B30007B68013B53600F214FF0FF30FFF78EFFA2
:102B4000054B00229A60044B07221A6000231846A6
:102B50000837BD4680BD00BF10E000E080B582B000
:102B600000AF78607868FFF729FF00BF0837BD46DF
:102B700080BD80B586B000AF0346B9607A60FB7354
:102B800000237B61FFF73EFF78617A68B968786956
:102B9000FFF78EFF024697F90F3011461846FFF7F0
:102BA0005DFF00BF1837BD4680BD80B582B000AF65
:102BB0000346FB7197F907301846FFF731FF00BF56
:102BC0000837BD4680BD80B582B000AF78607868B8
:102BD000FFF7A2FF034618460837BD4680BD80B503
:102BE00084B000AF78607B689B6DFB60FFF7E8FA0C
:102BF000B8607B6893F83530DBB2022B08D07B6875
:102C000080225A657B68002283F83420012352E039
:102C10007B681B681A687B681B6822F016021A60C2
:102C20007B681B685A697B681B6822F080025A61C6
:102C30007B681B6C002B03D17B689B6C002B07D03F
:102C40007B681B681A687B681B6822F008021A60A0
:102C50007B681B681A687B681B6822F001021A6097
:102C600013E0FFF7ADFA0246BB68D31A052B0CD967
:102C70007B6820225A657B68032283F835207B68B5
:102C8000002283F83420032315E07B681B681B684F
:102C900003F00103002BE4D17B68DB6D3F229A40F7
:102CA000FB689A607B68012283F835207B680022EC
:102CB00083F83420002318461037BD4680BD80B409
:102CC00083B000AF78607B6893F83530DBB2022BBD
:102CD00004D07B6880225A6501230CE07B680522C2
:102CE00083F835207B681B681A687B681B6822F0B4
:102CF00001021A60002318460C37BD465DF8047BBC
:102D00007047000080B489B000AF7860396000235C
:102D10007B6100233B610023BB610023FB6159E120
:102D20000122FB6902FA03F37B613B681B687A6945
:102D300013403B613A697B699A4240F048813B68A5
:102D40005B6803F00303012B05D03B685B6803F06D
:102D50000303022B30D17B689B68BB61FB695B007E
:102D6000032202FA03F3DB43BA691340BB613B68F9
:102D7000DA68FB695B0002FA03F3BA691343BB61CB
:102D80007B68BA699A607B685B68BB610122FB69FA
:102D900002FA03F3DB43BA691340BB613B685B682B
:102DA0001B0903F00102FB6902FA03F3BA6913433A
:102DB000BB617B68BA695A603B685B6803F00303D8
:102DC000032B17D07B68DB68BB61FB695B000322C8
:102DD00002FA03F3DB43BA691340BB613B689A68AC
:102DE000FB695B0002FA03F3BA691343BB617B68BA
:102DF000BA69DA603B685B6803F00303022B23D1F6
:102E0000FB69DA087B68083253F82230BB61FB6942
:102E100003F007039B000F2202FA03F3DB43BA69B6
:102E20001340BB613B681A69FB6903F007039B0011
:102E300002FA03F3BA691343BB61FB69DA087B68E2
:102E40000832B96943F822107B681B68BB61FB69D3
:102E50005B00032202FA03F3DB43BA691340BB6150
:102E60003B685B6803F00302FB695B0002FA03F353
:102E7000BA691343BB617B68BA691A603B685B68D7
:102E800003F44033002B00F0A2800023FB60574B7B
:102E90005B6C564A43F480435364544B5B6C03F4BD
:102EA0008043FB60FB68524AFB699B08023352F87F
:102EB0002330BB61FB6903F003039B000F2202FA7E
:102EC00003F3DB43BA691340BB617B68494A934211
:102ED00019D07B68484A934213D07B68474A934293
:102EE0000DD07B68464A934207D07B68454A93429F
:102EF00001D1042308E0072306E0032304E00223B2
:102F000002E0012300E00023FA6902F003029200CC
:102F10009340BA691343BB613549FB699B0802338F
:102F2000BA6941F82320384B9B68BB613B69DB439E
:102F3000BA691340BB613B685B6803F48013002BE4
:102F400003D0BA693B691343BB612F4ABB699360E5
:102F50002D4BDB68BB613B69DB43BA691340BB6146
:102F60003B685B6803F40013002B03D0BA693B692C
:102F70001343BB61244ABB69D360234B5B68BB61CD
:102F80003B69DB43BA691340BB613B685B6803F490
:102F90000033002B03D0BA693B691343BB611A4A63
:102FA000BB695360184B1B68BB613B69DB43BA6963
:102FB0001340BB613B685B6803F48033002B03D094
:102FC000BA693B691343BB610F4ABB691360FB6974
:102FD0000133FB61FB690F2B7FF6A2AE00BF00BF80
:102FE0002437BD465DF8047B704700BF00380240BF
:102FF0000038014000000240000402400008024086
:10300000000C024000100240003C014080B483B03C
:1030100000AF78600B467B8013467B707B78002B7B
:1030200003D07A887B689A6103E07B881A047B6806
:103030009A6100BF0C37BD465DF8047B704780B4D1
:1030400085B000AF78600B467B807B685B69FB6076
:103050007A88FB6813401A04FB68D9437B880B40CD
:103060001A437B689A6100BF1437BD465DF8047B44
:103070007047000080B584B000AF78607B68002B9B
:1030800001D101232BE17B6893F83D30DBB2002BAB
:1030900006D17B68002283F83C207868FEF7ACFEFE
:1030A0007B68242283F83D207B681B681A687B6854
:1030B0001B6822F001021A607B681B681A687B6833
:1030C0001B6842F400421A607B681B681A687B68C0
:1030D0001B6822F400421A6001F092FBF8607B68E2
:1030E0005B68814A934207D8FB68804A934294BF49
:1030F00001230023DBB206E0FB687D4A934294BFC4
:1031000001230023DBB2002B01D00123E7E0FB68A1
:10311000784AA2FB03239B0CBB607B681B685B683F
:1031200023F03F017B681B68BA680A435A607B68DA
:103130001B681B6A23F03F017B685B686A4A934205
:1031400002D8BB68013309E0BB684FF4967202FBFA
:1031500003F3694AA2FB03239B0901337A681268CF
:103160000B4313627B681B68DB6923F44F4222F038
:10317000FF027B685B685C498B4219D8FB68591E6B
:103180007B685B685B00B1FBF3F3591C40F6FC7392
:103190000B40002B0AD0FB68591E7B685B685B0004
:1031A000B1FBF3F30133C3F30B0351E004234FE00E
:1031B0007B689B68002B11D1FB68581E7B6859689F
:1031C0000B465B000B44B0FBF3F30133C3F30B037B
:1031D000002B0CBF01230023DBB212E0FB68581E5A
:1031E0007B6859680B469B000B4499000B44B0FB6D
:1031F000F3F30133C3F30B03002B0CBF01230023B4
:10320000DBB2002B01D0012322E07B689B68002BFE
:103210000ED1FB68581E7B6859680B465B000B4457
:10322000B0FBF3F30133C3F30B0343F400430FE0AC
:10323000FB68581E7B6859680B469B000B4499003D
:103240000B44B0FBF3F30133C3F30B0343F44043EC
:10325000796809681343CB617B681B681B6823F09E
:10326000C0017B68DA697B681B6A1A437B681B684C
:103270000A431A607B681B689B6823F4034323F0AE
:10328000FF037A6811697A68D26811437A68126814
:103290000B4393607B681B68DB6823F0FF017B684E
:1032A0005A697B689B691A437B681B680A43DA602A
:1032B0007B681B681A687B681B6842F001021A6011
:1032C0007B6800221A647B68202283F83D207B689B
:1032D00000221A637B68002283F83E2000231846F0
:1032E0001037BD4680BD00BFA08601007F841E0050
:1032F000FF083D0083DE1B43D34D621080B588B0CC
:1033000002AFF8607A601A460B467B8113463B8118
:10331000FEF756FF7861FB6893F83D30DBB2202B57
:1033200040F0E0807B690093192301227049F8681E
:1033300000F058FC0346002B01D00223D3E0FB68C9
:1033400093F83C30012B01D10223CCE0FB68012231
:1033500083F83C20FB681B681B6803F00103012B0A
:1033600007D0FB681B681A68FB681B6842F0010203
:103370001A60FB681B681A68FB681B6822F400620D
:103380001A60FB68212283F83D20FB68102283F835
:103390003E20FB6800221A64FB687A685A62FB6868
:1033A0003A895A85FB685B8D9AB2FB681A85FB687F
:1033B000504ADA6279897B693A6AF86800F0C2FAA1
:1033C0000346002B01D001238DE000233B61FB6805
:1033D0001B685B693B61FB681B689B693B613B69E0
:1033E00066E07A69396AF86800F0D2FC0346002B7F
:1033F0000DD0FB681B6C042B07D1FB681B681A6897
:10340000FB681B6842F400721A6001236BE0FB68E2
:103410005B6A1A78FB681B681A61FB685B6A5A1C56
:10342000FB685A62FB685B8D9BB2013B9AB2FB68FA
:103430005A85FB681B8D013B9AB2FB681A85FB68B5
:103440001B685B6903F00403042B1BD1FB681B8D15
:10345000002B17D0FB685B6A1A78FB681B681A613F
:10346000FB685B6A5A1CFB685A62FB685B8D9BB207
:10347000013B9AB2FB685A85FB681B8D013B9AB2EF
:10348000FB681A857A69396AF86800F0C2FC03465D
:10349000002B0DD0FB681B6C042B07D1FB681B684D
:1034A0001A68FB681B6842F400721A6001231AE074
:1034B000FB681B8D002B94D1FB681B681A68FB68A6
:1034C0001B6842F400721A60FB68202283F83D20DA
:1034D000FB68002283F83E20FB68002283F83C2032
:1034E000002300E0022318461837BD4680BD00BF08
:1034F000020010000000FFFF80B58CB002AFF86042
:103500007A601A460B467B8113463B81FEF758FED4
:103510007862FB6893F83D30DBB2202B40F00B82E1
:103520007B6A0093192301227C49F86800F05AFB5A
:103530000346002B01D00223FEE1FB6893F83C30E8
:10354000012B01D10223F7E1FB68012283F83C2023
:10355000FB681B681B6803F00103012B07D0FB68A5
:103560001B681A68FB681B6842F001021A60FB685E
:103570001B681A68FB681B6822F400621A60FB680B
:10358000222283F83D20FB68102283F83E20FB684E
:1035900000221A64FB687A685A62FB683A895A8585
:1035A000FB685B8D9AB2FB681A85FB685C4ADA623D
:1035B00079897B6A3A6BF86800F046FA0346002B7B
:1035C00001D00123B8E1FB681B8D002B13D1002330
:1035D0003B62FB681B685B693B62FB681B689B691D
:1035E0003B623B6AFB681B681A68FB681B6842F415
:1035F00000721A608CE1FB681B8D012B1BD1FB68EC
:103600001B681A68FB681B6822F480621A6000233A
:10361000FB61FB681B685B69FB61FB681B689B695E
:10362000FB61FB69FB681B681A68FB681B6842F456
:1036300000721A606CE1FB681B8D022B1BD1FB68CA
:103640001B681A68FB681B6822F480621A60FB68BA
:103650001B681A68FB681B6842F400621A6000234A
:10366000BB61FB681B685B69BB61FB681B689B698E
:10367000BB61BB694CE1FB681B681A68FB681B688F
:1036800042F480621A6000237B61FB681B685B69FF
:103690007B61FB681B689B697B617B6938E1FB6828
:1036A0001B8D032B00F2F180FB681B8D012B23D1B6
:1036B0007A6A396BF86800F0EDFB0346002B01D005
:1036C000012339E1FB681B681A69FB685B6AD2B2A7
:1036D0001A70FB685B6A5A1CFB685A62FB681B8D98
:1036E000013B9AB2FB681A85FB685B8D9BB2013B7C
:1036F0009AB2FB685A850BE1FB681B8D022B4ED1F9
:103700007B6A00933B6B00220649F86800F06AFA76
:103710000346002B08D001230EE100BF0200100079
:103720000000FFFF04000100FB681B681A68FB68CB
:103730001B6842F400721A60FB681B681A69FB6818
:103740005B6AD2B21A70FB685B6A5A1CFB685A62E9
:10375000FB681B8D013B9AB2FB681A85FB685B8D89
:103760009BB2013B9AB2FB685A85FB681B681A69D9
:10377000FB685B6AD2B21A70FB685B6A5A1CFB6812
:103780005A62FB681B8D013B9AB2FB681A85FB6885
:103790005B8D9BB2013B9AB2FB685A85B8E07B6AAD
:1037A00000933B6B00226649F86800F01BFA034661
:1037B000002B01D00123BFE0FB681B681A68FB687F
:1037C0001B6822F480621A60FB681B681A69FB6838
:1037D0005B6AD2B21A70FB685B6A5A1CFB685A6259
:1037E000FB681B8D013B9AB2FB681A85FB685B8DF9
:1037F0009BB2013B9AB2FB685A857B6A00933B6B94
:1038000000224F49F86800F0EDF90346002B01D083
:10381000012391E0FB681B681A68FB681B6842F48F
:1038200000721A60FB681B681A69FB685B6AD2B297
:103830001A70FB685B6A5A1CFB685A62FB681B8D36
:10384000013B9AB2FB681A85FB685B8D9BB2013B1A
:103850009AB2FB685A85FB681B681A69FB685B6A49
:10386000D2B21A70FB685B6A5A1CFB685A62FB682A
:103870001B8D013B9AB2FB681A85FB685B8D9BB27E
:10388000013B9AB2FB685A8542E07A6A396BF86864
:1038900000F000FB0346002B01D001234CE0FB6845
:1038A0001B681A69FB685B6AD2B21A70FB685B6AB4
:1038B0005A1CFB685A62FB681B8D013B9AB2FB687D
:1038C0001A85FB685B8D9BB2013B9AB2FB685A85F7
:1038D000FB681B685B6903F00403042B18D1FB68C9
:1038E0001B681A69FB685B6AD2B21A70FB685B6A74
:1038F0005A1CFB685A62FB681B8D013B9AB2FB683D
:103900001A85FB685B8D9BB2013B9AB2FB685A85B6
:10391000FB681B8D002B7FF4C2AEFB68202283F86E
:103920003D20FB68002283F83E20FB68002283F8DC
:103930003C20002300E0022318462837BD4680BD06
:103940000400010080B588B002AFF8607A603B6087
:103950000B467B81FB68DB6A7B617B69082B06D0A9
:103960007B69012B03D07B6913F5803F08D1FB688D
:103970001B681A68FB681B6842F480721A600BE0CF
:10398000FB681B6B122B07D1FB681B681A68FB686E
:103990001B6842F480721A603B6800937B680022C7
:1039A0004FF00111F86800F01DF90346002B0DD00F
:1039B000FB681B681B6803F48073B3F5807F03D139
:1039C000FB684FF400721A64032335E0FB681B693F
:1039D000B3F5804F08D17B89DBB21A46FB681B68C0
:1039E00002F0FE021A611BE07B89DB11DBB203F0FF
:1039F0000603DBB263F00F03DAB2FB681B681A61DF
:103A00003B687A680E49F86800F043F90346002BDA
:103A100001D0012310E07B89DAB2FB681B681A61D0
:103A20003B687A680749F86800F033F90346002BD1
:103A300001D0012300E0002318461837BD4680BDA1
:103A4000080001000200010080B588B002AFF860F4
:103A50007A603B600B467B81FB68DB6A7B61FB68BD
:103A60001B681A68FB681B6842F480621A607B69F5
:103A7000082B06D07B69012B03D07B6913F5803FAF
:103A800008D1FB681B681A68FB681B6842F48072E7
:103A90001A600BE0FB681B6B112B07D1FB681B68DE
:103AA0001A68FB681B6842F480721A603B680093D6
:103AB0007B6800224FF00111F86800F093F803468C
:103AC000002B0DD0FB681B681B6803F48073B3F5F3
:103AD000807F03D1FB684FF400721A64032379E0FE
:103AE000FB681B69B3F5804F08D17B89DBB243F0DB
:103AF0000103DAB2FB681B681A615FE07B89DB11A6
:103B0000DBB203F00603DBB263F00F03DAB2FB684B
:103B10001B681A613B687A683049F86800F0B9F8A8
:103B20000346002B01D0012354E07B89DAB2FB6805
:103B30001B681A613B687A682949F86800F0A9F89F
:103B40000346002B01D0012344E000233B61FB68C6
:103B50001B685B693B61FB681B689B693B613B6958
:103B6000FB681B681A68FB681B6842F480721A6065
:103B70003B6800937B6800224FF00111F86800F069
:103B800031F80346002B0DD0FB681B681B6803F45B
:103B90008073B3F5807F03D1FB684FF400721A6421
:103BA000032317E07B89DB11DBB203F00603DBB2F2
:103BB00063F00E03DAB2FB681B681A613B687A682F
:103BC0000749F86800F065F80346002B01D001238F
:103BD00000E0002318461837BD4680BD08000100EC
:103BE0000200010080B584B000AFF860B9603B60AE
:103BF0001346FB7125E03B68B3F1FF3F21D0FEF790
:103C0000DFFA0246BB69D31A3A689A4202D33B688C
:103C1000002B16D1FB6800221A63FB68202283F870
:103C20003D20FB68002283F83E20FB681B6C43F0BC
:103C30002002FB681A64FB68002283F83C20012301
:103C400023E0BB681B0CDBB2012B0DD1FB681B68AA
:103C50005B69DA43BB6813409BB2002B0CBF0123A6
:103C60000023DBB21A460CE0FB681B689B69DA4351
:103C7000BB6813409BB2002B0CBF01230023DBB2B7
:103C80001A46FB799A42B6D0002318461037BD4633
:103C900080BD80B584B000AFF860B9607A603B60E9
:103CA00051E0FB681B685B6903F48063B3F5806FC8
:103CB00023D1FB681B681A68FB681B6842F400721A
:103CC0001A60FB681B686FF480625A61FB6800220F
:103CD0001A63FB68202283F83D20FB68002283F8EA
:103CE0003E20FB681B6C43F00402FB681A64FB680F
:103CF000002283F83C20012346E07B68B3F1FF3FBC
:103D000021D0FEF75DFA02463B68D31A7A689A42E0
:103D100002D37B68002B16D1FB6800221A63FB6874
:103D2000202283F83D20FB68002283F83E20FB68B8
:103D30001B6C43F02002FB681A64FB68002283F8C6
:103D40003C20012320E0BB681B0CDBB2012B0CD113
:103D5000FB681B685B69DA43BB6813409BB2002BAE
:103D600014BF01230023DBB20BE0FB681B689B69D7
:103D7000DA43BB6813409BB2002B14BF012300231E
:103D8000DBB2002B8DD1002318461037BD4680BD15
:103D900080B584B000AFF860B9607A602DE0F86853
:103DA00000F0CEF80346002B01D001232DE0BB68C4
:103DB000B3F1FF3F21D0FEF703FA02467B68D31A26
:103DC000BA689A4202D3BB68002B16D1FB68002266
:103DD0001A63FB68202283F83D20FB68002283F8E9
:103DE0003E20FB681B6C43F02002FB681A64FB68F2
:103DF000002283F83C20012307E0FB681B685B6915
:103E000003F08003802BCAD1002318461037BD462B
:103E100080BD80B584B000AFF860B9607A602DE0F5
:103E2000F86800F08DF80346002B01D001232DE047
:103E3000BB68B3F1FF3F21D0FEF7C2F902467B68B1
:103E4000D31ABA689A4202D3BB68002B16D1FB681A
:103E500000221A63FB68202283F83D20FB680022C1
:103E600083F83E20FB681B6C43F02002FB681A6459
:103E7000FB68002283F83C20012307E0FB681B68F5
:103E80005B6903F00403042BCAD1002318461037E2
:103E9000BD4680BD80B584B000AFF860B9607A607F
:103EA00042E0FB681B685B6903F01003102B19D11B
:103EB000FB681B686FF010025A61FB6800221A63EE
:103EC000FB68202283F83D20FB68002283F83E2017
:103ED000FB681A6CFB681A64FB68002283F83C20BC
:103EE000012329E0FEF76CF902467B68D31ABA6811
:103EF0009A4202D3BB68002B16D1FB6800221A63DA
:103F0000FB68202283F83D20FB68002283F83E20D6
:103F1000FB681B6C43F02002FB681A64FB680022FC
:103F200083F83C20012307E0FB681B685B6903F012
:103F30004003402BB5D1002318461037BD4680BD45
:103F400080B483B000AF78607B681B685B6903F462
:103F50008063B3F5806F1BD17B681B686FF4806250
:103F60005A617B6800221A637B68202283F83D2017
:103F70007B68002283F83E207B681B6C43F00402C0
:103F80007B681A647B68002283F83C20012300E0F0
:103F9000002318460C37BD465DF8047B70470000CF
:103FA00080B586B000AF78607B68002B01D101231B
:103FB00067E27B681B6803F00103002B75D0884B18
:103FC0009B6803F00C03042B0CD0854B9B6803F01B
:103FD0000C03082B12D1824B5B6803F48003B3F50A
:103FE000800F0BD17E4B1B6803F40033002B5BD09A
:103FF0007B685B68002B57D1012342E27B685B68DA
:10400000B3F5803F06D1764B1B68754A43F4803385
:1040100013601DE07B685B68B3F5A02F0CD1704B7B
:104020001B686F4A43F4802313606D4B1B686C4A16
:1040300043F4803313600BE0694B1B68684A23F438
:1040400080331360664B1B68654A23F4802313603A
:104050007B685B68002B13D0FEF7B2F8386108E08C
:10406000FEF7AEF802463B69D31A642B01D903234D
:1040700007E25B4B1B6803F40033002BF0D014E025
:10408000FEF79EF8386108E0FEF79AF802463B69B1
:10409000D31A642B01D90323F3E1514B1B6803F4BA
:1040A0000033002BF0D100E000BF7B681B6803F0F9
:1040B0000203002B63D04A4B9B6803F00C03002BD8
:1040C0000BD0474B9B6803F00C03082B1CD1444BCF
:1040D0005B6803F48003002B16D1414B1B6803F08F
:1040E0000203002B05D07B68DB68012B01D0012384
:1040F000C7E13B4B1B6823F0F8027B681B69DB00C0
:10410000374913430B603AE07B68DB68002B20D013
:10411000344B01221A60FEF753F8386108E0FEF7CD
:104120004FF802463B69D31A022B01D90323A8E1B9
:104130002B4B1B6803F00203002BF0D0284B1B68AD
:1041400023F0F8027B681B69DB00254913430B60F1
:1041500015E0244B00221A60FEF732F8386108E0BF
:10416000FEF72EF802463B69D31A022B01D903232E
:1041700087E11B4B1B6803F00203002BF0D17B6827
:104180001B6803F00803002B36D07B685B69002BAB
:1041900016D0154B01221A60FEF712F8386108E0BC
:1041A000FEF70EF802463B69D31A022B01D903230E
:1041B00067E10B4B5B6F03F00203002BF0D01BE0B9
:1041C000094B00221A60FDF7FBFF38610EE0FDF796
:1041D000F7FF02463B69D31A022B07D9032350E1AC
:1041E0000038024000004742800E4742884B5B6F18
:1041F00003F00203002BEAD17B681B6803F0040381
:10420000002B00F097800023FB75814B1B6C03F0A3
:104210008053002B0FD10023BB607D4B1B6C7C4A6D
:1042200043F0805313647A4B1B6C03F08053BB60E4
:10423000BB680123FB75774B1B6803F48073002B6D
:1042400018D1744B1B68734A43F480731360FDF7F5
:10425000B7FF386108E0FDF7B3FF02463B69D31AA8
:10426000022B01D903230CE16A4B1B6803F4807312
:10427000002BF0D07B689B68012B06D1644B1B6F31
:10428000634A43F0010313671CE07B689B68052BBE
:104290000CD15F4B1B6F5E4A43F0040313675C4B0A
:1042A0001B6F5B4A43F0010313670BE0584B1B6F16
:1042B000574A23F001031367554B1B6F544A23F0F1
:1042C000040313677B689B68002B15D0FDF778FF0C
:1042D00038610AE0FDF774FF02463B69D31A41F2E8
:1042E0008832934201D90323CBE0494B1B6F03F083
:1042F0000203002BEED014E0FDF762FF38610AE004
:10430000FDF75EFF02463B69D31A41F288329342C1
:1043100001D90323B5E03E4B1B6F03F00203002BD2
:10432000EED1FB7D012B05D1394B1B6C384A23F0B4
:10433000805313647B689B69002B00F0A180344B91
:104340009B6803F00C03082B5CD07B689B69022BF5
:1043500041D1314B00221A60FDF732FF386108E08D
:10436000FDF72EFF02463B69D31A022B01D9032326
:1043700087E0274B1B6803F00073002BF0D17B68AC
:10438000DA697B681B6A1A437B685B6A9B011A4384
:104390007B689B6A5B08013B1B041A437B68DB6AF2
:1043A0001B061B4913434B601B4B01221A60FDF790
:1043B00007FF386108E0FDF703FF02463B69D31AA7
:1043C000022B01D903235CE0114B1B6803F000733F
:1043D000002BF0D054E0104B00221A60FDF7F0FEE5
:1043E000386108E0FDF7ECFE02463B69D31A022B68
:1043F00001D9032345E0064B1B6803F00073002B33
:10440000F0D13DE07B689B69012B07D1012338E0A7
:104410000038024000700040600047421B4B5B6860
:10442000FB607B689B69012B28D0FB6803F480024A
:104430007B68DB699A4221D1FB6803F03F027B680D
:104440001B6A9A421AD1FA6847F6C07313407A6819
:10445000526A9201934211D1FB6803F440327B68A7
:104460009B6A5B08013B1B049A4207D1FB6803F07F
:1044700070627B68DB6A1B069A4201D0012300E070
:10448000002318461837BD4680BD00BF00380240E3
:1044900080B584B000AF786039607B68002B01D1B3
:1044A0000123CCE0684B1B6803F007033A689A428B
:1044B0000CD9654B3A68D2B21A70634B1B6803F093
:1044C00007033A689A4201D00123B8E07B681B6871
:1044D00003F00203002B20D07B681B6803F0040369
:1044E000002B05D0594B9B68584A43F4E053936026
:1044F0007B681B6803F00803002B05D0534B9B68B7
:10450000524A43F460439360504B9B6823F0F0029F
:104510007B689B684D4913438B607B681B6803F085
:104520000103002B44D07B685B68012B07D1474B0C
:104530001B6803F40033002B19D101237FE07B6853
:104540005B68022B03D07B685B68032B07D13F4B72
:104550001B6803F00073002B09D101236FE03B4B74
:104560001B6803F00203002B01D1012367E0374BE6
:104570009B6823F003027B685B68344913438B60BC
:10458000FDF71EFEF8600AE0FDF71AFE0246FB6822
:10459000D31A41F28832934201D903234FE02B4BC7
:1045A0009B6803F00C027B685B689B009A42EBD12E
:1045B000254B1B6803F007033A689A420CD2224B42
:1045C0003A68D2B21A70204B1B6803F007033A68AE
:1045D0009A4201D0012332E07B681B6803F0040398
:1045E000002B08D0194B9B6823F4E0527B68DB68F2
:1045F000164913438B607B681B6803F00803002B8C
:1046000009D0124B9B6823F460427B681B69DB0076
:104610000E4913438B6000F021F802460B4B9B6858
:104620001B0903F00F030A49CB5C22FA03F3094A82
:104630001360094B1B681846FDF77EFD00231846E2
:104640001037BD4680BD00BF003C0240003802402C
:10465000846B000800000020040000202DE9B04F0A
:1046600090B000AF00237B630023FB6300233B6318
:104670000023BB63594B9B6803F00C03082B0DD040
:10468000082B00F2A180002B02D0042B03D09BE06A
:10469000534BBB639BE0534BBB6398E04F4B5B6852
:1046A00003F03F037B634D4B5B6803F48003002BF7
:1046B00028D04A4B5B689B0900223B627A623B6AC6
:1046C000C3F308000021474B03FB01F2002300FB6A
:1046D00003F31344434AA0FB0212FA620A46BA6289
:1046E000FA6A1344FB627B6B0022BB61FA61D7E973
:1046F0000623D7E90A01FCF7E1F902460B46134607
:10470000FB6353E0354B5B689B0900223B617A6198
:104710003B69C3F3080A4FF0000B52465B464FF06B
:1047200000004FF00001590141EAD26150010246F8
:104730000B46B2EB0A0863EB0B094FF000024FF097
:1047400000034FEA891343EA98634FEA8812B2EBF9
:10475000080463EB09054FF000024FF00003EB0083
:1047600043EA5473E20014461D4614EB0A033B600F
:1047700045EB0B037B604FF000024FF00003D7E9DD
:10478000004529468B02214643EA915321468A027D
:10479000104619467B6B0022BB60FA60D7E9022302
:1047A000FCF78CF902460B461346FB630B4B5B6828
:1047B0001B0C03F0030301335B003B63FA6B3B6BA1
:1047C000B2FBF3F3BB6302E0054BBB6300BFBB6B03
:1047D00018464037BD46BDE8B08F00BF00380240E4
:1047E0000024F40040787D0180B400AF034B1B68C7
:1047F0001846BD465DF8047B704700BF00000020EE
:1048000080B500AFFFF7F0FF0246054B9B689B0A9F
:1048100003F007030349CB5C22FA03F3184680BD7B
:1048200000380240946B000880B500AFFFF7DCFF52
:104830000246054B9B685B0B03F007030349CB5C07
:1048400022FA03F3184680BD00380240946B00083A
:1048500080B582B000AF78607B68002B01D1012366
:1048600041E07B6893F83D30DBB2002B06D17B68DA
:10487000002283F83C207868FDF716FB7B68022253
:1048800083F83D207B681A687B680433194610461C
:1048900000F088FA7B68012283F846207B680122B9
:1048A00083F83E207B68012283F83F207B68012249
:1048B00083F840207B68012283F841207B68012235
:1048C00083F842207B68012283F843207B68012221
:1048D00083F844207B68012283F845207B6801220D
:1048E00083F83D20002318460837BD4680BD0000F0
:1048F00080B485B000AF78607B6893F83D30DBB260
:10490000012B01D0012344E07B68022283F83D2083
:104910007B681B68DA687B681B6842F00102DA601A
:104920007B681B681E4A934218D07B681B68B3F1F2
:10493000804F13D07B681B681A4A93420ED07B6865
:104940001B68194A934209D07B681B68174A934237
:1049500004D07B681B68164A934211D17B681B68A0
:104960009B6803F00703FB60FB68062B10D07B6895
:104970001B681A687B681B6842F001021A6007E036
:104980007B681B681A687B681B6842F001021A602A
:10499000002318461437BD465DF8047B704700BFFE
:1049A000000001400004004000080040000C0040EE
:1049B0000040014080B582B000AF78607B681B6822
:1049C0001B6903F00203022B22D17B681B68DB68A2
:1049D00003F00203022B1BD17B681B686FF00202FD
:1049E0001A617B6801221A777B681B689B6903F058
:1049F0000303002B03D0786800F0B5F905E0786870
:104A000000F0A7F9786800F0B8F97B6800221A77FF
:104A10007B681B681B6903F00403042B22D17B68AD
:104A20001B68DB6803F00403042B1BD17B681B6845
:104A30006FF004021A617B6802221A777B681B6898
:104A40009B6903F44073002B03D0786800F08BF966
:104A500005E0786800F07DF9786800F08EF97B68F1
:104A600000221A777B681B681B6903F00803082B78
:104A700022D17B681B68DB6803F00803082B1BD17D
:104A80007B681B686FF008021A617B6804221A7742
:104A90007B681B68DB6903F00303002B03D0786895
:104AA00000F061F905E0786800F053F9786800F0EB
:104AB00064F97B6800221A777B681B681B6903F026
:104AC0001003102B22D17B681B68DB6803F01003F6
:104AD000102B1BD17B681B686FF010021A617B687A
:104AE00008221A777B681B68DB6903F44073002B8C
:104AF00003D0786800F037F905E0786800F029F90C
:104B0000786800F03AF97B6800221A777B681B68A6
:104B10001B6903F00103012B0ED17B681B68DB6866
:104B200003F00103012B07D17B681B686FF00102C2
:104B30001A617868FCF7DEFE7B681B681B6903F06E
:104B40008003802B0ED17B681B68DB6803F0800339
:104B5000802B07D17B681B686FF080021A61786830
:104B600000F0B2FA7B681B681B6903F04003402B1E
:104B70000ED17B681B68DB6803F04003402B07D134
:104B80007B681B686FF040021A61786800F0FFF8DC
:104B90007B681B681B6903F02003202B0ED17B6808
:104BA0001B68DB6803F02003202B07D17B681B68A0
:104BB0006FF020021A61786800F07CFA00BF0837B5
:104BC000BD4680BD80B584B000AF786039600023F9
:104BD000FB737B6893F83C30012B01D10223B4E0D6
:104BE0007B68012283F83C207B68022283F83D2009
:104BF0007B681B689B68BB60BB6823F07703BB6066
:104C0000BB6823F47F43BB607B681B68BA689A600B
:104C10003B681B68B3F5005F3ED0B3F5005F00F260
:104C20008780B3F5805F00F08680B3F5805F7FD822
:104C3000702B1AD0702B7BD8602B50D0602B77D87C
:104C4000502B3CD0502B73D8402B58D0402B6FD8D2
:104C5000302B64D0302B6BD8202B60D0202B67D822
:104C6000002B5CD0102B5AD062E07B6818683B6840
:104C700099683B685A683B68DB6800F08DF97B688F
:104C80001B689B68BB60BB6843F07703BB607B68B5
:104C90001B68BA689A604FE07B6818683B6899683F
:104CA0003B685A683B68DB6800F076F97B681B68F4
:104CB0009A687B681B6842F480429A603CE07B689B
:104CC00018683B6859683B68DB681A4600F0EAF8E8
:104CD0007B681B685021184600F043F92CE07B6884
:104CE00018683B6859683B68DB681A4600F009F9A8
:104CF0007B681B686021184600F033F91CE07B6874
:104D000018683B6859683B68DB681A4600F0CAF8C7
:104D10007B681B684021184600F023F90CE07B6893
:104D20001A683B681B681946104600F01AF903E040
:104D30000123FB7300E000BF7B68012283F83D2064
:104D40007B68002283F83C20FB7B18461037BD4669
:104D500080BD80B483B000AF786000BF0C37BD4623
:104D60005DF8047B704780B483B000AF786000BF0B
:104D70000C37BD465DF8047B704780B483B000AF4C
:104D8000786000BF0C37BD465DF8047B704780B487
:104D900083B000AF786000BF0C37BD465DF8047B80
:104DA0007047000080B485B000AF786039607B68E0
:104DB0001B68FB607B68344A93420FD07B68B3F179
:104DC000804F0BD07B68314A934207D07B68304AD2
:104DD000934203D07B682F4A934208D1FB6823F0AB
:104DE0007003FB603B685B68FA681343FB607B6899
:104DF000254A93421BD07B68B3F1804F17D07B6864
:104E0000224A934213D07B68214A93420FD07B6899
:104E1000204A93420BD07B681F4A934207D07B689D
:104E20001E4A934203D07B681D4A934208D1FB6817
:104E300023F44073FB603B68DB68FA681343FB6054
:104E4000FB6823F080023B685B691343FB607B686F
:104E5000FA681A603B689A687B68DA623B681A688D
:104E60007B689A627B68084A934203D13B681A695F
:104E70007B681A637B6801225A6100BF1437BD4604
:104E80005DF8047B704700BF000001400004004053
:104E900000080040000C0040004001400044014078
:104EA0000048014080B487B000AFF860B9607A6014
:104EB000FB681B6A7B61FB681B6A23F00102FB68CD
:104EC0001A62FB689B693B613B6923F0F0033B611D
:104ED0007B681B013A6913433B617B6923F00A033A
:104EE0007B617A69BB6813437B61FB683A699A61AD
:104EF000FB687A691A6200BF1C37BD465DF8047B07
:104F0000704780B487B000AFF860B9607A60FB6822
:104F10001B6A23F01002FB681A62FB689B697B61C5
:104F2000FB681B6A3B617B6923F470437B617B6890
:104F30001B037A6913437B613B6923F0A0033B6148
:104F4000BB681B013A6913433B61FB687A699A614C
:104F5000FB683A691A6200BF1C37BD465DF8047BE6
:104F6000704780B485B000AF786039607B689B681B
:104F7000FB60FB6823F07003FB603A68FB68134337
:104F800043F00703FB607B68FA689A6000BF143740
:104F9000BD465DF8047B704780B487B000AFF86011
:104FA000B9607A603B60FB689B687B617B6923F436
:104FB0007F437B613B681A027B681A43BB681343DB
:104FC0007A6913437B61FB687A699A6000BF1C377A
:104FD000BD465DF8047B704780B485B000AF786053
:104FE00039607B6893F83C30012B01D1022350E0FB
:104FF0007B68012283F83C207B68022283F83D20F5
:105000007B681B685B68FB607B681B689B68BB6098
:10501000FB6823F07003FB603B681B68FA6813436E
:10502000FB607B681B68FA685A607B681B681C4AD7
:10503000934218D07B681B68B3F1804F13D07B6814
:105040001B68184A93420ED07B681B68164A93422D
:1050500009D07B681B68154A934204D07B681B68A3
:10506000134A93420CD1BB6823F08003BB603B68BA
:105070005B68BA681343BB607B681B68BA689A6058
:105080007B68012283F83D207B68002283F83C2066
:10509000002318461437BD465DF8047B704700BFF7
:1050A000000001400004004000080040000C0040E7
:1050B0000040014080B483B000AF786000BF0C377F
:1050C000BD465DF8047B704780B483B000AF786064
:1050D00000BF0C37BD465DF8047B704780B582B0D9
:1050E00000AF78607B68002B01D101233FE07B6833
:1050F00093F83D30DBB2002B06D17B68002283F8A9
:105100003C207868FCF7F6FE7B68242283F83D207B
:105110007B681B68DA687B681B6822F40052DA60DF
:10512000786800F0DFFD7B681B681A697B681B6884
:1051300022F490421A617B681B685A697B681B687D
:1051400022F02A025A617B681B68DA687B681B6858
:1051500042F40052DA607B6800221A647B682022E5
:1051600083F83D207B68202283F83E2000231846E8
:105170000837BD4680BD80B58AB002AFF860B9601F
:105180003B601346FB8000237B61FB6893F83D3056
:10519000DBB2202B7CD1BB68002B02D0FB88002B1C
:1051A00001D1012375E0FB6893F83C30012B01D15C
:1051B00002236EE0FB68012283F83C20FB6800229A
:1051C0001A64FB68212283F83D20FCF7F9FF78611F
:1051D000FB68FA889A84FB68FA88DA84FB689B6823
:1051E000B3F5805F08D1FB681B69002B04D1002355
:1051F000FB61BB68BB6103E0BB68FB610023BB6173
:10520000FB68002283F83C202AE03B6800937B691E
:1052100000228021F86800F01FFB0346002B01D01C
:10522000032336E0FB69002B0BD1BB691B881A46B0
:10523000FB681B68C2F308025A60BB690233BB619A
:1052400007E0FB691A78FB681B685A60FB69013349
:10525000FB61FB68DB8C9BB2013B9AB2FB68DA8492
:10526000FB68DB8C9BB2002BCFD13B6800937B6942
:1052700000224021F86800F0EFFA0346002B01D02D
:10528000032306E0FB68202283F83D20002300E092
:10529000022318462037BD4680BD80B584B000AFDC
:1052A000F860B9601346FB80FB6893F83E30DBB2D0
:1052B000202B1DD1BB68002B02D0FB88002B01D115
:1052C000012316E0FB6893F83C30012B01D1022347
:1052D0000FE0FB68012283F83C20FB6800221A6380
:1052E000FB881A46B968F86800F024FB034600E022
:1052F000022318461037BD4680BD000080B5BAB005
:1053000000AF78607B681B681B68C7F8E4307B6877
:105310001B68DB68C7F8E0307B681B685B69C7F80F
:10532000DC300023C7F8D8300023C7F8D430D7F8D2
:10533000E43003F00F03C7F8D830D7F8D830002B8B
:105340000FD1D7F8E43003F02003002B09D0D7F8B1
:10535000E03003F02003002B03D0786800F007FC56
:1053600056E2D7F8D830002B00F0DE80D7F8DC30DA
:1053700003F00103002B06D1D7F8E03003F490735B
:10538000002B00F0D180D7F8E43003F00103002BAC
:105390000BD0D7F8E03003F48073002B05D07B6886
:1053A0001B6C43F001027B681A64D7F8E43003F009
:1053B0000403002B0BD0D7F8DC3003F00103002BE3
:1053C00005D07B681B6C43F002027B681A64D7F837
:1053D000E43003F00203002B0BD0D7F8DC3003F0ED
:1053E0000103002B05D07B681B6C43F004027B6833
:1053F0001A64D7F8E43003F00803002B11D0D7F873
:10540000E03003F02003002B05D1D7F8DC3003F0A7
:105410000103002B05D07B681B6C43F008027B68FE
:105420001A647B681B6C002B00F0ED81D7F8E43028
:1054300003F02003002B08D0D7F8E03003F020035E
:10544000002B02D0786800F092FB7B681B685B69D8
:1054500003F04003402B0CBF01230023DBB2C7F84D
:10546000D4307B681B6C03F00803002B03D1D7F802
:10547000D430002B4FD0786800F09AFA7B681B6814
:105480005B6903F04003402B41D17B681B681433F8
:10549000C7F89C30D7F89C3053E8003FC7F89830E5
:1054A000D7F8983023F04003C7F8D0307B681B68EA
:1054B0001433D7F8D020C7F8A820C7F8A430D7F8FD
:1054C000A410D7F8A82041E80023C7F8A030D7F8E7
:1054D000A030002BD9D17B689B6B002B13D07B684D
:1054E0009B6B7D4A1A657B689B6B1846FDF7E7FB53
:1054F0000346002B16D07B689B6B1B6D7A68926B02
:10550000104698470EE0786800F090F90AE0786855
:1055100000F08CF906E0786800F088F97B680022DA
:105520001A6470E100BF6EE17B681B6B012B40F0D9
:105530004A81D7F8E43003F01003002B00F04381D8
:10554000D7F8E03003F01003002B00F03C8100237B
:10555000BB607B681B681B68BB607B681B685B6803
:10556000BB60BB687B681B685B6903F04003402B32
:1055700040F0B4807B689B6B1B685B68A7F8BE300B
:10558000B7F8BE30002B00F040817B689B8DB7F8E8
:10559000BE209A4280F039817B68B7F8BE20DA8558
:1055A0007B689B6BDB69B3F5807F00F088807B684C
:1055B0001B680C33C7F88830D7F8883053E8003FB1
:1055C000C7F88430D7F8843023F48073C7F8B83034
:1055D0007B681B680C33D7F8B820C7F89420C7F84D
:1055E0009030D7F89010D7F8942041E80023C7F8FE
:1055F0008C30D7F88C30002BD9D17B681B681433E2
:105600007B677B6F53E8003F3B673B6F23F00103F1
:10561000C7F8B4307B681B681433D7F8B420C7F8D8
:105620008020FB67F96FD7F8802041E80023BB6733
:10563000BB6F002BE1D17B681B6814333B663B6E6C
:1056400053E8003FFB65FB6D23F04003C7F8B03023
:105650007B681B681433D7F8B020FA66BB66B96E56
:10566000FA6E41E800237B667B6E002BE3D17B68FA
:10567000202283F83E207B6800221A637B681B6827
:105680000C33FB64FB6C53E8003FBB64BB6C23F042
:105690001003C7F8AC307B681B680C33D7F8AC201C
:1056A000BA657B65796DBA6D41E800233B653B6D5A
:1056B000002BE3D17B689B6B1846FDF790FA7B6863
:1056C0009A8D7B68DB8D9BB2D31A9BB219467868A2
:1056D00000F0B6F899E000BF775A00087B689A8D11
:1056E0007B68DB8D9BB2D31AA7F8CE307B68DB8D4D
:1056F0009BB2002B00F08B80B7F8CE30002B00F06F
:1057000086807B681B680C33BB63BB6B53E8003F30
:105710007B637B6B23F49073C7F8C8307B681B688E
:105720000C33D7F8C8207A643B64396C7A6C41E852
:105730000023FB63FB6B002BE3D17B681B681433F6
:105740007B627B6A53E8003F3B623B6A23F00103C4
:10575000C7F8C4307B681B681433D7F8C4203A6399
:10576000FB62F96A3A6B41E80023BB62BB6A002B1B
:10577000E3D17B68202283F83E207B6800221A63F5
:105780007B681B680C333B613B6953E8003FFB605F
:10579000FB6823F01003C7F8C0307B681B680C332C
:1057A000D7F8C020FA61BB61B969FA6941E8002302
:1057B0007B617B69002BE3D1B7F8CE30194678685E
:1057C00000F03EF823E0D7F8E43003F08003002B2C
:1057D00009D0D7F8E03003F08003002B03D07868BD
:1057E00000F05DF914E0D7F8E43003F04003002B3B
:1057F0000ED0D7F8E03003F04003002B08D07868D3
:1058000000F09DF904E000BF02E000BF00E000BF2F
:10581000E837BD4680BD00BF80B483B000AF78607C
:1058200000BF0C37BD465DF8047B704780B483B081
:1058300000AF786000BF0C37BD465DF8047B704751
:1058400080B483B000AF78600B467B8000BF0C371C
:10585000BD465DF8047B704780B590B000AFF8603E
:10586000B9603B601346FB7150E0BB6CB3F1FF3F86
:105870004CD0BB6C002B07D0FCF7A2FC02463B6867
:10588000D31ABA6C9A4241D2FB681B680C33BB62D4
:10589000BB6A53E8003F7B627B6A23F4D073FB63EF
:1058A000FB681B680C33FA6B7A633B63396B7A6B6A
:1058B00041E80023FB62FB6A002BE5D1FB681B6813
:1058C00014337B617B6953E8003F3B613B6923F004
:1058D0000103BB63FB681B681433BA6B3A62FB615C
:1058E000F9693A6A41E80023BB61BB69002BE5D145
:1058F000FB68202283F83D20FB68202283F83E20AD
:10590000FB68002283F83C2003230FE0FB681B6840
:105910001A68BB681340BA689A420CBF012300237F
:10592000DBB21A46FB799A429FD0002318464037D3
:10593000BD4680BD80B485B000AFF860B960134645
:10594000FB80FB68BA689A62FB68FA889A85FB68F4
:10595000FA88DA85FB6800221A64FB68222283F841
:105960003E20FB68002283F83C20FB681B69002B6B
:1059700007D0FB681B68DA68FB681B6842F480721A
:10598000DA60FB681B685A69FB681B6842F0010219
:105990005A61FB681B68DA68FB681B6842F02002EA
:1059A000DA60002318461437BD465DF8047B704763
:1059B00080B495B000AF78607B681B680C337B6364
:1059C0007B6B53E8003F3B633B6B23F49073FB64BA
:1059D0007B681B680C33FA6C3A64FB63F96B3A6CB6
:1059E00041E80023BB63BB6B002BE5D17B681B68E0
:1059F00014333B623B6A53E8003FFB61FB6923F0D1
:105A00000103BB647B681B681433BA6CFA62BB6227
:105A1000B96AFA6A41E800237B627B6A002BE5D110
:105A20007B681B6B012B19D17B681B680C33FB60F7
:105A3000FB6853E8003FBB60BB6823F010037B6446
:105A40007B681B680C337A6CBA617B617969BA69CF
:105A500041E800233B613B69002BE5D17B682022B4
:105A600083F83E207B6800221A6300BF5437BD468E
:105A70005DF8047B704780B584B000AF78607B68C8
:105A80009B6BFB60FB680022DA85FB680022DA84EE
:105A9000F868FFF7CBFE00BF1037BD4680BD80B46D
:105AA00085B000AF78607B6893F83D30DBB2212B86
:105AB0003ED17B689B68B3F5805F14D17B681B691E
:105AC000002B10D17B681B6AFB60FB681B881A46A1
:105AD0007B681B68C2F308025A607B681B6A9A1CC9
